:03000000020D20CE
:0C0D2000787FE4F6D8FD75812A020611E8
:10061100E4F526F521F520F51FF51EF52AF529F556
:1006210028F527F525F524F523F522120C8D120B5B
:1006310002EF3395E04F7003020797120B02AC07EC
:10064100EC1203358F218E208D1F8C1E7F647E005E
:10065100120CECE4FFFE7D607C41AB21AA20A91FB6
:10066100A81E1202A1503AE4FFFE7D807CC0AB219E
:10067100AA20A91FA81E12000AC004C005C006C0F6
:1006810007E4FFFE7D207C41AB2AAA29A928A827DF
:100691001200FBD003D002D001D00012000A0207E1
:1006A1008FE4FFFE7D907C41AB21AA20A91FA81EEB
:1006B1001202A1400302076BE526702D852A2585CC
:1006C1002924852823852722F52AF529F528F527C8
:1006D100AF21AE20AD1FAC1E1203698F26E4F521B8
:1006E100F520F51FF51E020797E52624F160231476
:1006F100603914604F24037064852A0F85290E85A3
:10070100280D85270CAF25AE24AD23AC22120CB6E3
:10071100807C852A0F85290E85280D85270CAF251C
:10072100AE24AD23AC22120D448063852A0F8529A6
:100731000E85280D85270CAF25AE24AD23AC2212E2
:100741000CD1804A852A0F85290E85280D85270C15
:10075100AF25AE24AD23AC22120D4F80317F007E38
:100761003C7D1C7C461207A5802CE4FFFE7D907C1D
:1007710041AB21AA20A91FA81E1202A1AF2AAE29AE
:10078100AD28AC277005120D5A8003120D6D8F2A0A
:100791008E298D288C27AF2AAE29AD28AC271207C8
:0407A100A502062F78
:100C8D00E5A0541F44A0F5A0E4F58053A01F7F0AF2
:100C9D00FE120CECE5A0541F4480F5A07580FF53A7
:090CAD00A01F7F0A7E00020CEC7E
:100CB6008F0B8E0A8D098C08AF0FAE0EAD0DAC0CE6
:0B0CC600AB0BAA0AA909A80802000A4B
:0B0D4400AB0FAA0EA90DA80C020006C0
:100CD1008F0B8E0A8D098C08AF0FAE0EAD0DAC0CCB
:0B0CE100AB0BAA0AA909A8080200FB3F
:0B0D4F00AB0FAA0EA90DA80C020204B5
:0B0D5A00A804A905AA06AB070200FBD5
:030D6D00020A5C1B
:080D6500000000000000000086
:100CEC00E4FDFCC3ED9FEC9E500F790F7B5ADBFEAD
:090CFC00D9FC0DBD00010C80EAD9
:010D050022CB
:05092D00FFAD151515DA
:10093200D2A5D2A6D2A7EFB4150040030209F090C7
:100942000948F828287302098702098C02099102D2
:10095200099602099B0209A00209A50209AA020935
:10096200AF0209B40209B90209BE0209C30209C8E9
:100972000209CD0209D20209D70209DC0209E10209
:1009820009E60209EB7580C080677580F98062759F
:1009920080A4805D7580B080587580998053758081
:1009A20092804E75808280497580F880447580807F
:1009B200803F758090803A7580408035758079805F
:1009C20030758024802B75803080267580198021B7
:1009D200758012801C75800280177580788012E401
:1009E200F580800D75801080087580BF800375804A
:1009F200FFC2A5D2A6D2A7ED14B40800504E900AA9
:100A02000E75F003A4C58325F0C58373020A49025B
:100A12000A44020A3F020A3A020A35020A30020A6C
:100A22002B020A267580018026758002802175803E
:100A320004801C75800880177580108012758020D4
:100A4200800D75804080087580808003E4F5807F8A
:060A5200017E00020CEC25
:0807A5008F0B8E0A8D098C08F0
:1007AD001203698F0F8E0E8D0D8C0CEC12032BA87E
:1007BD0004A905AA06AB07AF0BAE0AAD09AC08122A
:1007CD0000068F138E128D118C10E4F5147515081B
:1007DD0078167C00FD7BFF7A0D7965FE7F0812048B
:1007ED00BAE4FFFEFDFCAB0BAA0AA909A808120288
:1007FD00A15042AD1515157F14120932AF0BAE0A7B
:10080D00AD09AC0812031A8F0B8E0A8D098C08AF37
:10081D000FAE0EAD0DAC0C1204F28F0F8E0E8D0DB2
:10082D008C0CAF13AE12AD11AC1012031A8F138EC8
:10083D00128D118C10E4FFFEFDFCAB0FAA0EA90D5D
:10084D00A80CD31205004038E47B0AFAF9F8AF0F73
:10085D00AE0EAD0DAC0C120C49AF03AE14051474F5
:10086D00162EF8A607AF0FAE0EAD0DAC0CE47B0A3D
:10087D00FAF9F8120C498F0F8E0E8D0D8C0C80B578
:10088D00AF14EF3395E0FED3EF9401EE64809480C6
:10089D00400D151474162514F8E612092D80E1AFDC
:1008AD0014EF3395E04F70020514151474162514CA
:1008BD00F8E6240A12092DAF15EF3395E0FED3EFBC
:1008CD009400EE648094804056AF13AE12AD11AC1F
:1008DD0010E4FBFA792078411200FB8F138E128DF4
:1008ED00118C1012036912092EAF13AE12AD11AC9B
:1008FD0010C004C005C006C007120369AC07EC1296
:10090D000335A804A905AA06AB07D007D006D00564
:0F091D00D0041200068F138E128D118C1080984B
:01092C0022A8
:100B0200E4F508F5097F01120D2CE4FF120D3812ED
:100B12000BA9EF64577003EE64047003020BA67F07
:100B22000A7E00120D06120BA9EF64577003EE64E1
:100B320004606E120BA9EF8EF01205160B61006FA6
:100B42000B5C03F30B57044D0B52045600000B646D
:100B5200E4F508800D7508018008750802800375A8
:100B62000803E4FF120D2C7F01120D38120BF9EF6E
:100B72008EF01205160B9A006F0B9503F30B90047F
:100B82004D0B8B045600000B9D750904800D7509F1
:100B920008800875090C8003750910E5082509FF0E
:060BA200227F00227F000B
:010BA800222A
:0C0D2C00EF24FF92B092B192B292B32279
:0C0D3800EF24FF92B492B592C292C42244
:100BA900A2B1E433FF3395E0FE7C007D641204E0DA
:100BB900AA06AB07A2B0E433FF3395E0FE7C037DC0
:100BC900E81204E0EF2BFBEE3AFAA2B2E433FF336A
:100BD90095E0FE7C007D0A1204E0EF2BFFEE3AFE61
:100BE900A2B3E433FD3395E0FCEF2DFFEE3CFE228A
:100BF900A2B5E433FF3395E0FE7C007D641204E086
:100C0900AA06AB07A2B4E433FF3395E0FE7C037D6B
:100C1900E81204E0EF2BFBEE3AFAA2C2E433FF3309
:100C290095E0FE7C007D0A1204E0EF2BFFEE3AFE10
:100C3900A2C4E433FD3395E0FCEF2DFFEE3CFE2228
:100D0600E4FDFCC3ED9FEC9E500F790F7B5ADBFE92
:090D1600D9FC0DBD00010C80EABE
:010D1F0022B1
:100003000203D5E86480F8E933E83360110460F053
:10001300ED33EC337009E8FCE9FDEAFEEBFF220463
:1000230060DED3EB9FEA9EE99DE8C2E78CF0C2F75E
:1000330095F0400CE8CCF8E9CDF9EACEFAEBCFFB2A
:100043001203A085D0F05804700320D5B3E80470E0
:10005300075002B2D50203DF92D5EC0460F7E4CC7B
:10006300C0E0C398F8603B94186008400DD0E0FBF3
:100073000203B7E4FBFAC9FC8028E830E406E4C9CC
:10008300FBE4CAFCE830E305E4C9CACBFCE8540747
:100093006010F8C3E913F9EA13FAEB13FBEC13FC52
:1000A300D8F130F52FC3E49CFCEF9BFFEE9AFEEDF5
:1000B30099FDD0E0FBEF4E4D4C701222DB0302039F
:1000C300DCEC2CFCEF33FFEE33FEED33FDED30E7DC
:1000D300EB0203B7EF2BFFEE3AFEED39FDD0E0FB69
:1000E30050130BBB00030203DFED13FDEE13FEEF12
:0800F30013FFEC13FC0203B73C
:1000FB00EC4D6011E8497017ED33EC3304600DE4FF
:10010B00FCFFFEFD22E933E8330470F80203D5123D
:10011B0003A058046009E4CC24815006285009023E
:10012B0003DF2840030203DCC0E0EB4A7044B980D4
:10013B0006D0E0FB0203CBEF4E701CBD8008EBFF3B
:10014B00EAFEE9FD80EBE98DF0A4FEE5F00201E4A7
:10015B00E9CDF9EAFEEBFFEF89F0A4FCE5F0CE89DF
:10016B00F0A42EFFE435F0CD89F0A42DFEE435F09C
:10017B008067EF4E7005BD80D780C3EF8BF0A4ACCA
:10018B00F0EE8BF0A42CFCE435F0F8EF8AF0A42C05
:10019B00E5F038FCE433CB8DF0A42CFCE5F03BF818
:1001AB00EE8AF0A42CFCE5F038F8E433CF89F0A408
:1001BB002CFCE5F038CF3400CE89F0A42FFFE5F00E
:1001CB003EFEE433C98DF0A42EFEE5F039CD8AF066
:1001DB00A42FFFE5F03EFEE43DFD33D0E0FB5007DE
:1001EB000BBB000F0203DFEC2CFCEF33FFEE33FEF7
:0601FB00ED33FD0203B725
:100201000203DFEC5D046005E8590470030203D5C5
:100211001203A0580460F6EC4860F2EC7004FDFE95
:10022100FF22C860DB2481C85009C39860025006D0
:100231000203DC9850CAF582E9294B4A7005AB826A
:100241000203CB75F0007C1A7880C3EF9BEE9AED28
:1002510099400DC3EF9BFFEE9AFEED99FDE842F048
:10026100DC23ACF0D0E0FFD0E0FED0E0FDAB82209B
:10027100E7101BEB60BAEC2CFCEF33FFEE33FEED25
:1002810033FD0203B7E803F830E705C0F075F0006D
:10029100EF2FFFEE33FEED33FD40B830E7C280AA09
:1002A10074F8CC6480CCC86480C8F58204604FC304
:1002B100EB9FF5F0EA9E42F0E99D42F0E89C45F0A3
:1002C100603C501DE5825FFFE582D313CB5BCBF42D
:1002D1002B5582FB50280ABA002409B90020088056
:1002E1001DE5825BFBE582D313CF5FCFF4C3132FF0
:1002F1005582FF50090EBE00050DBD00010CC3EB78
:100301009FF5F0EA9E42F0E99D42F0E89C45F060DD
:0903110007CC4820E701B3EC22FF
:10031A00ED33EC33600A047003BD8004ECB2E7FCF1
:01032A0022B0
:10032B0075F020800E75F010800575F0087D007E4D
:10033B00007F003392D530D5031204F2EC3340101A
:10034B00EF33FFEE33FEED33FDEC33FCD5F0ED2256
:0E035B00E5F0247EA2D513CC92E7CDCEFF2292
:10036900EDD2E7CD33EC3392D524814006E4FFFE8C
:10037900FDFC22FCE4CFCECDCC24E0501174FF80EB
:10038900EDC3CC13CCCD13CDCE13CECF13CF047088
:07039900F030D5DE0204F292
:100A58000203D522EDA2E7D2E7F9EC3340F260F3C6
:100A6800B4FF08ED547F70E80203DFF82481C2E088
:100A7800C0E0F40428FAC313FCED92E7FD8C088D5E
:100A8800098E0A8F0BEEA2E7E9BA7F02C31334007E
:100A98009400FA75F091A4E5F013F494FE8AF0A49A
:100AA80033E5F033248CD313FDE492E7FE7F007C1A
:100AB8003F758302ECC0E0F8EDC0E0F9EEC0E0FA63
:100AC800EFC0E0FBAC08AD09AE0AAF0B120204D0D0
:100AD800E0FBD0E0FAD0E0F9D0E0F812000AED64CB
:100AE80080FD30E7011CD583CBED33CC33F8D0E063
:0A0AF800A2E71328C313CC13FD225C
:1003A000E9D2E7C933E833F892D5EDD2E7CD33ECA3
:0703B00033FC5002B2D5221C
:1003B700EC30E7100FBF000C0EBE00080DBD0004A7
:1003C7000BEB6014A2D5EB13FCED92E7FD2274FF53
:1003D700FCFDFEFF22E480F8A2D574FF13FC7D80AC
:0303E700E480EFC0
:1003EA00E709F608DFFA8046E709F208DFFA803EF5
:1003FA0088828C83E709F0A3DFFA8032E309F608E2
:10040A00DFFA8078E309F208DFFA807088828C8349
:10041A00E309F0A3DFFA806489828A83E0A3F608FD
:10042A00DFFA805889828A83E0A3F208DFFA804CD7
:10043A0080D280FA80C680D4806980F280338010AE
:10044A0080A680EA809A80A880DA80E280CA803317
:10045A0089828A83ECFAE493A3C8C582C8CCC5838F
:10046A00CCF0A3C8C582C8CCC583CCDFE9DEE7805F
:10047A000D89828A83E493A3F608DFF9ECFAA9F0DE
:10048A00EDFB2289828A83ECFAE0A3C8C582C8CC34
:10049A00C583CCF0A3C8C582C8CCC583CCDFEADE4D
:1004AA00E880DB89828A83E493A3F208DFF980CCAF
:1004BA0088F0EF60010E4E60C388F0ED2402B404A8
:1004CA000050B9F582EB2402B4040050AF2323454F
:0604DA00822390043A7336
:1004E000EF8DF0A4A8F0CF8CF0A428CE8DF0A42E30
:0204F000FE22EA
:100C4900C2D5E830E70FB2D5E4C39BFBE49AFAE4D6
:100C590099F9E498F8EC30E717B2D5120C7F120530
:100C69007FE4C39BFBE49AFAE499F9E498F88003DA
:100C790012057F30D50DE4C39FFFE49EFEE49DFD80
:040C8900E49CFC22C9
:0E04F200C3E49FFFE49EFEE49DFDE49CFC221B
:10050000EB9FF5F0EA9E42F0E99D42F0EC6480C872
:0605100064809845F02212
:10051600D083D082F8E4937012740193700DA3A374
:1005260093F8740193F5828883E473740293B5F0AB
:0D053600067403936860E9A3A3A3A380D813
:1005430075F008758200EF2FFFEE33FECD33CDCC6F
:1005530033CCC58233C5829BED9AEC99E5829840F2
:100563000CF582EE9BFEED9AFDEC99FC0FD5F0D6CF
:10057300E4CEFBE4CDFAE4CCF9A88222B800C1B9F9
:100583000059BA002DEC8BF084CFCECDFCE5F0CB37
:10059300F97818EF2FFFEE33FEED33FDEC33FCEB70
:1005A30033FB10D703994004EB99FB0FD8E5E4F92B
:1005B300FA227818EF2FFFEE33FEED33FDEC33FC18
:1005C300C933C910D7059BE99A4007EC9BFCE99A0C
:1005D300F90FD8E0E4C9FAE4CCFB2275F010EF2F51
:1005E300FFEE33FEED33FDCC33CCC833C810D70751
:1005F3009BEC9AE899400AED9BFDEC9AFCE899F88C
:0E0603000FD5F0DAE4CDFBE4CCFAE4C8F9221E
:00000001FF
